{
  "contractName": "Hospital",
  "abi": [
    {
      "inputs": [],
      "stateMutability": "nonpayable",
      "type": "constructor"
    },
    {
      "inputs": [
        {
          "internalType": "address",
          "name": "",
          "type": "address"
        }
      ],
      "name": "patients",
      "outputs": [
        {
          "internalType": "uint256",
          "name": "patientId",
          "type": "uint256"
        },
        {
          "internalType": "string",
          "name": "patientName",
          "type": "string"
        },
        {
          "internalType": "string",
          "name": "phoneNumber",
          "type": "string"
        },
        {
          "internalType": "string",
          "name": "email",
          "type": "string"
        },
        {
          "internalType": "enum Hospital.Gender",
          "name": "gender",
          "type": "uint8"
        },
        {
          "internalType": "uint256",
          "name": "age",
          "type": "uint256"
        },
        {
          "internalType": "string",
          "name": "symptoms",
          "type": "string"
        },
        {
          "internalType": "bool",
          "name": "paid",
          "type": "bool"
        }
      ],
      "stateMutability": "view",
      "type": "function",
      "constant": true
    },
    {
      "stateMutability": "payable",
      "type": "receive",
      "payable": true
    },
    {
      "inputs": [],
      "name": "totalPatient",
      "outputs": [
        {
          "internalType": "uint256",
          "name": "",
          "type": "uint256"
        }
      ],
      "stateMutability": "view",
      "type": "function",
      "constant": true
    },
    {
      "inputs": [
        {
          "internalType": "address",
          "name": "_patientAddress",
          "type": "address"
        },
        {
          "internalType": "string",
          "name": "_patientName",
          "type": "string"
        },
        {
          "internalType": "string",
          "name": "_phoneNumber",
          "type": "string"
        },
        {
          "internalType": "string",
          "name": "_email",
          "type": "string"
        },
        {
          "internalType": "uint256",
          "name": "_gender",
          "type": "uint256"
        },
        {
          "internalType": "uint256",
          "name": "_age",
          "type": "uint256"
        },
        {
          "internalType": "string",
          "name": "_symptoms",
          "type": "string"
        }
      ],
      "name": "registerUser",
      "outputs": [],
      "stateMutability": "nonpayable",
      "type": "function"
    },
    {
      "inputs": [],
      "name": "isOwner",
      "outputs": [
        {
          "internalType": "bool",
          "name": "",
          "type": "bool"
        }
      ],
      "stateMutability": "view",
      "type": "function",
      "constant": true
    },
    {
      "inputs": [],
      "name": "totalBalance",
      "outputs": [
        {
          "internalType": "uint256",
          "name": "",
          "type": "uint256"
        }
      ],
      "stateMutability": "view",
      "type": "function",
      "constant": true
    },
    {
      "inputs": [
        {
          "internalType": "address payable",
          "name": "_to",
          "type": "address"
        }
      ],
      "name": "withdraw",
      "outputs": [],
      "stateMutability": "nonpayable",
      "type": "function"
    }
  ],
  "bytecode": "0x60806040526000805534801561001457600080fd5b5033600160006101000a81548173ffffffffffffffffffffffffffffffffffffffff021916908373ffffffffffffffffffffffffffffffffffffffff1602179055506111b3806100656000396000f3fe6080604052600436106100595760003560e01c80630869cfbc146101de5780632027213a1461041a57806351cff8d9146106db5780638f32d59b1461072c57806392c2808f1461075b578063ad7a672f14610786576101d9565b366101d957670de0b6b3a764000034146100be576040517f08c379a000000000000000000000000000000000000000000000000000000000815260040180806020018281038252603181526020018061114d6031913960400191505060405180910390fd5b60008081548092919060010191905055506001600260003373ffffffffffffffffffffffffffffffffffffffff1673ffffffffffffffffffffffffffffffffffffffff16815260200190815260200160002060070160006101000a81548160ff021916908315150217905550600054600260003373ffffffffffffffffffffffffffffffffffffffff1673ffffffffffffffffffffffffffffffffffffffff168152602001908152602001600020600001819055506003600260003373ffffffffffffffffffffffffffffffffffffffff1673ffffffffffffffffffffffffffffffffffffffff16815260200190815260200160002060040160006101000a81548160ff021916908360038111156101d257fe5b0217905550005b600080fd5b3480156101ea57600080fd5b5061022d6004803603602081101561020157600080fd5b81019080803573ffffffffffffffffffffffffffffffffffffffff1690602001909291905050506107b1565b6040518089815260200180602001806020018060200188600381111561024f57fe5b60ff168152602001878152602001806020018615151515815260200185810385528c818151815260200191508051906020019080838360005b838110156102a3578082015181840152602081019050610288565b50505050905090810190601f1680156102d05780820380516001836020036101000a031916815260200191505b5085810384528b818151815260200191508051906020019080838360005b838110156103095780820151818401526020810190506102ee565b50505050905090810190601f1680156103365780820380516001836020036101000a031916815260200191505b5085810383528a818151815260200191508051906020019080838360005b8381101561036f578082015181840152602081019050610354565b50505050905090810190601f16801561039c5780820380516001836020036101000a031916815260200191505b50858103825287818151815260200191508051906020019080838360005b838110156103d55780820151818401526020810190506103ba565b50505050905090810190601f1680156104025780820380516001836020036101000a031916815260200191505b509c5050505050505050505050505060405180910390f35b34801561042657600080fd5b506106d9600480360360e081101561043d57600080fd5b81019080803573ffffffffffffffffffffffffffffffffffffffff1690602001909291908035906020019064010000000081111561047a57600080fd5b82018360208201111561048c57600080fd5b803590602001918460018302840111640100000000831117156104ae57600080fd5b91908080601f016020809104026020016040519081016040528093929190818152602001838380828437600081840152601f19601f8201169050808301925050505050505091929192908035906020019064010000000081111561051157600080fd5b82018360208201111561052357600080fd5b8035906020019184600183028401116401000000008311171561054557600080fd5b91908080601f016020809104026020016040519081016040528093929190818152602001838380828437600081840152601f19601f820116905080830192505050505050509192919290803590602001906401000000008111156105a857600080fd5b8201836020820111156105ba57600080fd5b803590602001918460018302840111640100000000831117156105dc57600080fd5b91908080601f016020809104026020016040519081016040528093929190818152602001838380828437600081840152601f19601f82011690508083019250505050505050919291929080359060200190929190803590602001909291908035906020019064010000000081111561065357600080fd5b82018360208201111561066557600080fd5b8035906020019184600183028401116401000000008311171561068757600080fd5b91908080601f016020809104026020016040519081016040528093929190818152602001838380828437600081840152601f19601f820116905080830192505050505050509192919290505050610a73565b005b3480156106e757600080fd5b5061072a600480360360208110156106fe57600080fd5b81019080803573ffffffffffffffffffffffffffffffffffffffff169060200190929190505050610f2a565b005b34801561073857600080fd5b5061074161103e565b604051808215151515815260200191505060405180910390f35b34801561076757600080fd5b50610770611096565b6040518082815260200191505060405180910390f35b34801561079257600080fd5b5061079b61109f565b6040518082815260200191505060405180910390f35b6002602052806000526040600020600091509050806000015490806001018054600181600116156101000203166002900480601f0160208091040260200160405190810160405280929190818152602001828054600181600116156101000203166002900480156108635780601f1061083857610100808354040283529160200191610863565b820191906000526020600020905b81548152906001019060200180831161084657829003601f168201915b505050505090806002018054600181600116156101000203166002900480601f0160208091040260200160405190810160405280929190818152602001828054600181600116156101000203166002900480156109015780601f106108d657610100808354040283529160200191610901565b820191906000526020600020905b8154815290600101906020018083116108e457829003601f168201915b505050505090806003018054600181600116156101000203166002900480601f01602080910402602001604051908101604052809291908181526020018280546001816001161561010002031660029004801561099f5780601f106109745761010080835404028352916020019161099f565b820191906000526020600020905b81548152906001019060200180831161098257829003601f168201915b5050505050908060040160009054906101000a900460ff1690806005015490806006018054600181600116156101000203166002900480601f016020809104026020016040519081016040528092919081815260200182805460018160011615610100020316600290048015610a565780601f10610a2b57610100808354040283529160200191610a56565b820191906000526020600020905b815481529060010190602001808311610a3957829003601f168201915b5050505050908060070160009054906101000a900460ff16905088565b600160009054906101000a900473ffffffffffffffffffffffffffffffffffffffff1673ffffffffffffffffffffffffffffffffffffffff163373ffffffffffffffffffffffffffffffffffffffff161480610afa57508673ffffffffffffffffffffffffffffffffffffffff163373ffffffffffffffffffffffffffffffffffffffff16145b610b6c576040517f08c379a00000000000000000000000000000000000000000000000000000000081526004018080602001828103825260158152602001807f596f75277265206e6f7420417574686f72697a6564000000000000000000000081525060200191505060405180910390fd5b60011515600260008973ffffffffffffffffffffffffffffffffffffffff1673ffffffffffffffffffffffffffffffffffffffff16815260200190815260200160002060070160009054906101000a900460ff16151514610c35576040517f08c379a00000000000000000000000000000000000000000000000000000000081526004018080602001828103825260158152602001807f596f75206861766520746f20706179206669727374000000000000000000000081525060200191505060405180910390fd5b85600260008973ffffffffffffffffffffffffffffffffffffffff1673ffffffffffffffffffffffffffffffffffffffff1681526020019081526020016000206001019080519060200190610c8b9291906110a7565b5084600260008973ffffffffffffffffffffffffffffffffffffffff1673ffffffffffffffffffffffffffffffffffffffff1681526020019081526020016000206002019080519060200190610ce29291906110a7565b5081600260008973ffffffffffffffffffffffffffffffffffffffff1673ffffffffffffffffffffffffffffffffffffffff1681526020019081526020016000206005018190555080600260008973ffffffffffffffffffffffffffffffffffffffff1673ffffffffffffffffffffffffffffffffffffffff1681526020019081526020016000206006019080519060200190610d809291906110a7565b5083600260008973ffffffffffffffffffffffffffffffffffffffff1673ffffffffffffffffffffffffffffffffffffffff1681526020019081526020016000206003019080519060200190610dd79291906110a7565b506001831415610e4a576000600260008973ffffffffffffffffffffffffffffffffffffffff1673ffffffffffffffffffffffffffffffffffffffff16815260200190815260200160002060040160006101000a81548160ff02191690836003811115610e4057fe5b0217905550610f21565b6002831415610ebc576001600260008973ffffffffffffffffffffffffffffffffffffffff1673ffffffffffffffffffffffffffffffffffffffff16815260200190815260200160002060040160006101000a81548160ff02191690836003811115610eb257fe5b0217905550610f20565b60028060008973ffffffffffffffffffffffffffffffffffffffff1673ffffffffffffffffffffffffffffffffffffffff16815260200190815260200160002060040160006101000a81548160ff02191690836003811115610f1a57fe5b02179055505b5b50505050505050565b600160009054906101000a900473ffffffffffffffffffffffffffffffffffffffff1673ffffffffffffffffffffffffffffffffffffffff163373ffffffffffffffffffffffffffffffffffffffff1614610fed576040517f08c379a00000000000000000000000000000000000000000000000000000000081526004018080602001828103825260158152602001807f596f75277265204e6f7420417574686f72697a6564000000000000000000000081525060200191505060405180910390fd5b8073ffffffffffffffffffffffffffffffffffffffff166108fc61100f61109f565b9081150290604051600060405180830381858888f1935050505015801561103a573d6000803e3d6000fd5b5050565b6000600160009054906101000a900473ffffffffffffffffffffffffffffffffffffffff1673ffffffffffffffffffffffffffffffffffffffff163373ffffffffffffffffffffffffffffffffffffffff1614905090565b60008054905090565b600047905090565b828054600181600116156101000203166002900490600052602060002090601f016020900481019282601f106110e857805160ff1916838001178555611116565b82800160010185558215611116579182015b828111156111155782518255916020019190600101906110fa565b5b5090506111239190611127565b5090565b61114991905b8082111561114557600081600090555060010161112d565b5090565b9056fe50617469656e7420526567697374726174696f6e20526571756972657320746f2062652031206574686572206578616374a264697066735822122000e65b6f3bc373c9740e6ff58bf051fdbec180adde5b955b60e90de65fc1f19664736f6c63430006000033",
  "source": "// SPDX-License-Identifier: DIT\r\npragma solidity ^0.6.0;\r\n\r\ncontract Hospital{\r\n    uint patientCount = 0;\r\n    address owner;\r\n    enum Gender{Male, Female, Others, NotSpecified}\r\n    Gender constant defaultChoice = Gender.NotSpecified;\r\n    \r\n    struct patient{\r\n        uint patientId;\r\n        string patientName;\r\n        string phoneNumber;\r\n        string email;\r\n        Gender gender;\r\n        uint age;\r\n        string symptoms; //cost cutting\r\n        bool paid; //\r\n    }\r\n    \r\n    mapping(address => patient) public patients;\r\n    \r\n    constructor() public{\r\n        owner = msg.sender;\r\n    }\r\n\r\n    function totalPatient() view public returns(uint){\r\n        return patientCount;\r\n    }\r\n    \r\n    function registerUser(address _patientAddress, string memory _patientName, string memory _phoneNumber, string memory _email, uint _gender, uint _age, string memory _symptoms) public{\r\n        require(msg.sender == owner || msg.sender == _patientAddress, \"You're not Authorized\");\r\n        require(patients[_patientAddress].paid == true, \"You have to pay first\");\r\n        patients[_patientAddress].patientName = _patientName;\r\n        patients[_patientAddress].phoneNumber = _phoneNumber;\r\n        patients[_patientAddress].age = _age;\r\n        patients[_patientAddress].symptoms = _symptoms;\r\n        patients[_patientAddress].email = _email;\r\n        if(_gender == 1){\r\n            patients[_patientAddress].gender = Gender.Male;\r\n        }\r\n        else if(_gender == 2){\r\n            patients[_patientAddress].gender = Gender.Female;\r\n        }\r\n        else{\r\n            patients[_patientAddress].gender = Gender.Others;\r\n        }\r\n    }\r\n    \r\n    function isOwner() view public returns(bool){\r\n        return msg.sender == owner;\r\n    }\r\n    \r\n    function totalBalance() public view returns(uint256){\r\n        return address(this).balance;\r\n    }\r\n    \r\n    function withdraw(address payable _to) public{\r\n        require(msg.sender == owner, \"You're Not Authorized\");\r\n        _to.transfer(totalBalance());\r\n    }\r\n    \r\n    receive() external payable{\r\n        require(msg.value == 1 ether, \"Patient Registration Requires to be 1 ether exact\");\r\n        patientCount++; \r\n        patients[msg.sender].paid = true;\r\n        patients[msg.sender].patientId = patientCount;\r\n        patients[msg.sender].gender = defaultChoice;\r\n    }\r\n}",
  "sourcePath": "C:/Users/dell-pc/Desktop/hospital/contracts/Hospital.sol",
  "compiler": {
    "name": "solc",
    "version": "0.6.0+commit.26b70077.Emscripten.clang"
  },
  "schemaVersion": "3.0.20",
  "updatedAt": "2021-09-26T07:57:53.092Z",
  "networkType": "ethereum",
  "devdoc": {
    "methods": {}
  },
  "userdoc": {
    "methods": {}
  }
}