{
  "contractName": "Hospital",
  "abi": [
    {
      "inputs": [],
      "stateMutability": "nonpayable",
      "type": "constructor"
    },
    {
      "inputs": [
        {
          "internalType": "address",
          "name": "",
          "type": "address"
        }
      ],
      "name": "patients",
      "outputs": [
        {
          "internalType": "uint256",
          "name": "patientId",
          "type": "uint256"
        },
        {
          "internalType": "string",
          "name": "patientName",
          "type": "string"
        },
        {
          "internalType": "string",
          "name": "phoneNumber",
          "type": "string"
        },
        {
          "internalType": "string",
          "name": "email",
          "type": "string"
        },
        {
          "internalType": "enum Hospital.Gender",
          "name": "gender",
          "type": "uint8"
        },
        {
          "internalType": "uint256",
          "name": "age",
          "type": "uint256"
        },
        {
          "internalType": "string",
          "name": "symptoms",
          "type": "string"
        },
        {
          "internalType": "bool",
          "name": "paid",
          "type": "bool"
        },
        {
          "internalType": "bool",
          "name": "status",
          "type": "bool"
        }
      ],
      "stateMutability": "view",
      "type": "function",
      "constant": true
    },
    {
      "stateMutability": "payable",
      "type": "receive",
      "payable": true
    },
    {
      "inputs": [],
      "name": "totalPatient",
      "outputs": [
        {
          "internalType": "uint256",
          "name": "",
          "type": "uint256"
        }
      ],
      "stateMutability": "view",
      "type": "function",
      "constant": true
    },
    {
      "inputs": [
        {
          "internalType": "address",
          "name": "_patientAddress",
          "type": "address"
        },
        {
          "internalType": "string",
          "name": "_patientName",
          "type": "string"
        },
        {
          "internalType": "string",
          "name": "_phoneNumber",
          "type": "string"
        },
        {
          "internalType": "string",
          "name": "_email",
          "type": "string"
        },
        {
          "internalType": "uint256",
          "name": "_gender",
          "type": "uint256"
        },
        {
          "internalType": "uint256",
          "name": "_age",
          "type": "uint256"
        },
        {
          "internalType": "string",
          "name": "_symptoms",
          "type": "string"
        }
      ],
      "name": "registerUser",
      "outputs": [],
      "stateMutability": "nonpayable",
      "type": "function"
    },
    {
      "inputs": [],
      "name": "isOwner",
      "outputs": [
        {
          "internalType": "bool",
          "name": "",
          "type": "bool"
        }
      ],
      "stateMutability": "view",
      "type": "function",
      "constant": true
    },
    {
      "inputs": [],
      "name": "totalBalance",
      "outputs": [
        {
          "internalType": "uint256",
          "name": "",
          "type": "uint256"
        }
      ],
      "stateMutability": "view",
      "type": "function",
      "constant": true
    },
    {
      "inputs": [
        {
          "internalType": "address payable",
          "name": "_to",
          "type": "address"
        }
      ],
      "name": "withdraw",
      "outputs": [],
      "stateMutability": "nonpayable",
      "type": "function"
    }
  ],
  "bytecode": "0x60806040526000805534801561001457600080fd5b5033600160006101000a81548173ffffffffffffffffffffffffffffffffffffffff021916908373ffffffffffffffffffffffffffffffffffffffff16021790555061122c806100656000396000f3fe6080604052600436106100595760003560e01c80630869cfbc146102395780632027213a1461048057806351cff8d9146107415780638f32d59b1461079257806392c2808f146107c1578063ad7a672f146107ec57610234565b3661023457670de0b6b3a764000034146100be576040517f08c379a00000000000000000000000000000000000000000000000000000000081526004018080602001828103825260318152602001806111c66031913960400191505060405180910390fd5b60008081548092919060010191905055506001600260003373ffffffffffffffffffffffffffffffffffffffff1673ffffffffffffffffffffffffffffffffffffffff16815260200190815260200160002060070160006101000a81548160ff021916908315150217905550600054600260003373ffffffffffffffffffffffffffffffffffffffff1673ffffffffffffffffffffffffffffffffffffffff168152602001908152602001600020600001819055506003600260003373ffffffffffffffffffffffffffffffffffffffff1673ffffffffffffffffffffffffffffffffffffffff16815260200190815260200160002060040160006101000a81548160ff021916908360038111156101d257fe5b02179055506000600260003373ffffffffffffffffffffffffffffffffffffffff1673ffffffffffffffffffffffffffffffffffffffff16815260200190815260200160002060070160016101000a81548160ff021916908315150217905550005b600080fd5b34801561024557600080fd5b506102886004803603602081101561025c57600080fd5b81019080803573ffffffffffffffffffffffffffffffffffffffff169060200190929190505050610817565b604051808a81526020018060200180602001806020018960038111156102aa57fe5b60ff16815260200188815260200180602001871515151581526020018615151515815260200185810385528d818151815260200191508051906020019080838360005b838110156103085780820151818401526020810190506102ed565b50505050905090810190601f1680156103355780820380516001836020036101000a031916815260200191505b5085810384528c818151815260200191508051906020019080838360005b8381101561036e578082015181840152602081019050610353565b50505050905090810190601f16801561039b5780820380516001836020036101000a031916815260200191505b5085810383528b818151815260200191508051906020019080838360005b838110156103d45780820151818401526020810190506103b9565b50505050905090810190601f1680156104015780820380516001836020036101000a031916815260200191505b50858103825288818151815260200191508051906020019080838360005b8381101561043a57808201518184015260208101905061041f565b50505050905090810190601f1680156104675780820380516001836020036101000a031916815260200191505b509d505050505050505050505050505060405180910390f35b34801561048c57600080fd5b5061073f600480360360e08110156104a357600080fd5b81019080803573ffffffffffffffffffffffffffffffffffffffff169060200190929190803590602001906401000000008111156104e057600080fd5b8201836020820111156104f257600080fd5b8035906020019184600183028401116401000000008311171561051457600080fd5b91908080601f016020809104026020016040519081016040528093929190818152602001838380828437600081840152601f19601f8201169050808301925050505050505091929192908035906020019064010000000081111561057757600080fd5b82018360208201111561058957600080fd5b803590602001918460018302840111640100000000831117156105ab57600080fd5b91908080601f016020809104026020016040519081016040528093929190818152602001838380828437600081840152601f19601f8201169050808301925050505050505091929192908035906020019064010000000081111561060e57600080fd5b82018360208201111561062057600080fd5b8035906020019184600183028401116401000000008311171561064257600080fd5b91908080601f016020809104026020016040519081016040528093929190818152602001838380828437600081840152601f19601f8201169050808301925050505050505091929192908035906020019092919080359060200190929190803590602001906401000000008111156106b957600080fd5b8201836020820111156106cb57600080fd5b803590602001918460018302840111640100000000831117156106ed57600080fd5b91908080601f016020809104026020016040519081016040528093929190818152602001838380828437600081840152601f19601f820116905080830192505050505050509192919290505050610aec565b005b34801561074d57600080fd5b506107906004803603602081101561076457600080fd5b81019080803573ffffffffffffffffffffffffffffffffffffffff169060200190929190505050610fa3565b005b34801561079e57600080fd5b506107a76110b7565b604051808215151515815260200191505060405180910390f35b3480156107cd57600080fd5b506107d661110f565b6040518082815260200191505060405180910390f35b3480156107f857600080fd5b50610801611118565b6040518082815260200191505060405180910390f35b6002602052806000526040600020600091509050806000015490806001018054600181600116156101000203166002900480601f0160208091040260200160405190810160405280929190818152602001828054600181600116156101000203166002900480156108c95780601f1061089e576101008083540402835291602001916108c9565b820191906000526020600020905b8154815290600101906020018083116108ac57829003601f168201915b505050505090806002018054600181600116156101000203166002900480601f0160208091040260200160405190810160405280929190818152602001828054600181600116156101000203166002900480156109675780601f1061093c57610100808354040283529160200191610967565b820191906000526020600020905b81548152906001019060200180831161094a57829003601f168201915b505050505090806003018054600181600116156101000203166002900480601f016020809104026020016040519081016040528092919081815260200182805460018160011615610100020316600290048015610a055780601f106109da57610100808354040283529160200191610a05565b820191906000526020600020905b8154815290600101906020018083116109e857829003601f168201915b5050505050908060040160009054906101000a900460ff1690806005015490806006018054600181600116156101000203166002900480601f016020809104026020016040519081016040528092919081815260200182805460018160011615610100020316600290048015610abc5780601f10610a9157610100808354040283529160200191610abc565b820191906000526020600020905b815481529060010190602001808311610a9f57829003601f168201915b5050505050908060070160009054906101000a900460ff16908060070160019054906101000a900460ff16905089565b600160009054906101000a900473ffffffffffffffffffffffffffffffffffffffff1673ffffffffffffffffffffffffffffffffffffffff163373ffffffffffffffffffffffffffffffffffffffff161480610b7357508673ffffffffffffffffffffffffffffffffffffffff163373ffffffffffffffffffffffffffffffffffffffff16145b610be5576040517f08c379a00000000000000000000000000000000000000000000000000000000081526004018080602001828103825260158152602001807f596f75277265206e6f7420417574686f72697a6564000000000000000000000081525060200191505060405180910390fd5b60011515600260008973ffffffffffffffffffffffffffffffffffffffff1673ffffffffffffffffffffffffffffffffffffffff16815260200190815260200160002060070160009054906101000a900460ff16151514610cae576040517f08c379a00000000000000000000000000000000000000000000000000000000081526004018080602001828103825260158152602001807f596f75206861766520746f20706179206669727374000000000000000000000081525060200191505060405180910390fd5b85600260008973ffffffffffffffffffffffffffffffffffffffff1673ffffffffffffffffffffffffffffffffffffffff1681526020019081526020016000206001019080519060200190610d04929190611120565b5084600260008973ffffffffffffffffffffffffffffffffffffffff1673ffffffffffffffffffffffffffffffffffffffff1681526020019081526020016000206002019080519060200190610d5b929190611120565b5081600260008973ffffffffffffffffffffffffffffffffffffffff1673ffffffffffffffffffffffffffffffffffffffff1681526020019081526020016000206005018190555080600260008973ffffffffffffffffffffffffffffffffffffffff1673ffffffffffffffffffffffffffffffffffffffff1681526020019081526020016000206006019080519060200190610df9929190611120565b5083600260008973ffffffffffffffffffffffffffffffffffffffff1673ffffffffffffffffffffffffffffffffffffffff1681526020019081526020016000206003019080519060200190610e50929190611120565b506001831415610ec3576000600260008973ffffffffffffffffffffffffffffffffffffffff1673ffffffffffffffffffffffffffffffffffffffff16815260200190815260200160002060040160006101000a81548160ff02191690836003811115610eb957fe5b0217905550610f9a565b6002831415610f35576001600260008973ffffffffffffffffffffffffffffffffffffffff1673ffffffffffffffffffffffffffffffffffffffff16815260200190815260200160002060040160006101000a81548160ff02191690836003811115610f2b57fe5b0217905550610f99565b60028060008973ffffffffffffffffffffffffffffffffffffffff1673ffffffffffffffffffffffffffffffffffffffff16815260200190815260200160002060040160006101000a81548160ff02191690836003811115610f9357fe5b02179055505b5b50505050505050565b600160009054906101000a900473ffffffffffffffffffffffffffffffffffffffff1673ffffffffffffffffffffffffffffffffffffffff163373ffffffffffffffffffffffffffffffffffffffff1614611066576040517f08c379a00000000000000000000000000000000000000000000000000000000081526004018080602001828103825260158152602001807f596f75277265204e6f7420417574686f72697a6564000000000000000000000081525060200191505060405180910390fd5b8073ffffffffffffffffffffffffffffffffffffffff166108fc611088611118565b9081150290604051600060405180830381858888f193505050501580156110b3573d6000803e3d6000fd5b5050565b6000600160009054906101000a900473ffffffffffffffffffffffffffffffffffffffff1673ffffffffffffffffffffffffffffffffffffffff163373ffffffffffffffffffffffffffffffffffffffff1614905090565b60008054905090565b600047905090565b828054600181600116156101000203166002900490600052602060002090601f016020900481019282601f1061116157805160ff191683800117855561118f565b8280016001018555821561118f579182015b8281111561118e578251825591602001919060010190611173565b5b50905061119c91906111a0565b5090565b6111c291905b808211156111be5760008160009055506001016111a6565b5090565b9056fe50617469656e7420526567697374726174696f6e20526571756972657320746f2062652031206574686572206578616374a2646970667358221220849a9f94f361039e88cde89bd8d274ecd4193eb702e2e4e68747d2219780d2e064736f6c63430006000033",
  "source": "// SPDX-License-Identifier: DIT\r\npragma solidity ^0.6.0;\r\n\r\ncontract Hospital{\r\n    uint patientCount = 0;\r\n    address owner;\r\n    enum Gender{Male, Female, Others, NotSpecified}\r\n    Gender constant defaultChoice = Gender.NotSpecified;\r\n    \r\n    struct patient{\r\n        uint patientId;\r\n        string patientName;\r\n        string phoneNumber;\r\n        string email;\r\n        Gender gender;\r\n        uint age;\r\n        string symptoms; //cost cutting\r\n        bool paid; //\r\n        bool status;\r\n    }\r\n    \r\n    mapping(address => patient) public patients;\r\n    \r\n    constructor() public{\r\n        owner = msg.sender;\r\n    }\r\n\r\n    function totalPatient() view public returns(uint){\r\n        return patientCount;\r\n    }\r\n    \r\n    function registerUser(address _patientAddress, string memory _patientName, string memory _phoneNumber, string memory _email, uint _gender, uint _age, string memory _symptoms) public{\r\n        require(msg.sender == owner || msg.sender == _patientAddress, \"You're not Authorized\");\r\n        require(patients[_patientAddress].paid == true, \"You have to pay first\");\r\n        patients[_patientAddress].patientName = _patientName;\r\n        patients[_patientAddress].phoneNumber = _phoneNumber;\r\n        patients[_patientAddress].age = _age;\r\n        patients[_patientAddress].symptoms = _symptoms;\r\n        patients[_patientAddress].email = _email;\r\n        if(_gender == 1){\r\n            patients[_patientAddress].gender = Gender.Male;\r\n        }\r\n        else if(_gender == 2){\r\n            patients[_patientAddress].gender = Gender.Female;\r\n        }\r\n        else{\r\n            patients[_patientAddress].gender = Gender.Others;\r\n        }\r\n    }\r\n    \r\n    function isOwner() view public returns(bool){\r\n        return msg.sender == owner;\r\n    }\r\n    \r\n    function totalBalance() public view returns(uint256){\r\n        return address(this).balance;\r\n    }\r\n    \r\n    function withdraw(address payable _to) public{\r\n        require(msg.sender == owner, \"You're Not Authorized\");\r\n        _to.transfer(totalBalance());\r\n    }\r\n\r\n    receive() external payable{\r\n        require(msg.value == 1 ether, \"Patient Registration Requires to be 1 ether exact\");\r\n        patientCount++; \r\n        patients[msg.sender].paid = true;\r\n        patients[msg.sender].patientId = patientCount;\r\n        patients[msg.sender].gender = defaultChoice;\r\n        patients[msg.sender].status = false;\r\n    }\r\n}",
  "sourcePath": "C:/Users/dell-pc/Desktop/hospital/contracts/Hospital.sol",
  "compiler": {
    "name": "solc",
    "version": "0.6.0+commit.26b70077.Emscripten.clang"
  },
  "schemaVersion": "3.0.20",
  "updatedAt": "2021-10-19T10:05:16.797Z",
  "networkType": "ethereum",
  "devdoc": {
    "methods": {}
  },
  "userdoc": {
    "methods": {}
  }
}